:020000040800F2
:10000000A8040020C1010008D91400081713000833
:10001000D5140008CD020008AB190008000000004C
:10002000000000000000000000000000DD140008D7
:10003000D102000800000000DB14000821170008AE
:10004000DB010008DB010008DB010008DB01000820
:10005000DB010008DB010008DB010008D302000817
:10006000DD020008DB010008DB010008DB010008FD
:10007000DB010008DB010008DB010008DB010008F0
:10008000DB010008DB010008DB010008DB010008E0
:10009000DB010008DB010008DB010008DB010008D0
:1000A000DB010008DB010008DB010008DB010008C0
:1000B000DB0100083D1800084D180008DB010008AE
:1000C000DB010008DB010008DB010008DB010008A0
:1000D000DB010008DB010008DB010008DB01000890
:1000E000DB010008DB010008DB010008DB01000880
:1000F000DB010008DB010008DB010008DB01000870
:10010000DB010008DB010008DB010008DB0100085F
:10011000DB010008DB010008DB010008DB0100084F
:10012000DB010008DB010008DB010008DB0100083F
:10013000DB010008DB010008DB010008DB0100082F
:10014000DB010008DB010008DB010008DB0100081F
:10015000DB010008DB010008DB010008DB0100080F
:10016000DB010008DB010008DB010008DB010008FF
:10017000DB010008DB010008DB01000800000000D3
:10018000DB010008DB010008DB010008DB010008DF
:10019000DB010008DB010008DB010008DB010008CF
:1001A000DB010008DB010008DB010008DFF80CD0F0
:1001B00000F07AF800480047091A0008A804002057
:1001C0000648804706480047FEE7FEE7FEE7FEE7F1
:1001D000FEE7FEE7FEE7FEE7FEE7FEE7D9170008C9
:1001E000AD0100082DE9F05F0546002092469B46D0
:1001F00088460646814640241BE02846414647463D
:10020000224600F041F853465A46C01A914110D395
:1002100011461846224600F028F82D1A67EB01080F
:100220004F4622460120002100F01FF817EB00097D
:100230004E41201EA4F10104DFDC484631462A4627
:100240004346BDE8F09FD2B201E000F8012B491E01
:10025000FBD270470022F6E710B513460A46044663
:100260001946FFF7F0FF204610BD202A04DB203A94
:1002700000FA02F1002070479140C2F1200320FAF9
:1002800003F3194390407047202A04DB203A21FAF7
:1002900002F00021704721FA02F3D040C2F120029F
:1002A0009140084319467047064C074D06E0E06848
:1002B00040F0010394E8070098471034AC42F6D3AD
:1002C000FFF778FF501A0008701A000800BFFEE719
:1002D000704710B5022000F013F810BD10B50420CF
:1002E00000F00EF810BD704710B50446022C01D086
:1002F000042C02D1014800F0F7FD10BD640000207D
:1003000010B5044604480068204020B1024804604B
:100310002046FFF7E9FF10BD143C0140F8B5024646
:100320000B460025002400200021E6E0012606FA05
:1003300001F51E6806EA0504AC4273D15E68022E20
:1003400002D05E68122E13D1CF0802F1200656F8B3
:1003500027004E07F70E0F26BE40B0434F07FF0E93
:100360001E69BE403043CF0802F1200646F8270040
:1003700010684F000326BE40B0431E7906F0030606
:100380004F00BE40304310605E68012E08D05E68AA
:10039000022E05D05E68112E02D05E68122E13D197
:1003A00090684F000326BE40B0434F00DE68BE4059
:1003B00030439060506801268E40B0431E79C6F3EA
:1003C00000168E4030435060D0684F000326BE4078
:1003D000B0434F009E68BE403043D0605E6806F078
:1003E0008056B6F1805FA8D100BF00260096454E2A
:1003F000366846F48046434F3E603E46366806F413
:100400008046009600BF00BF3F4E8F0856F8270079
:100410008E07370F0F26BE40B0433C4EB24202D18A
:1004200000262EE068E03A4EB24201D1012628E0D3
:10043000384EB24201D1022623E0374EB24201D1FA
:1004400003261EE0354EB24201D1042619E0344E97
:10045000B24201D1052614E0324EB24201D1062645
:100460000FE0314EB24201D107260AE02F4EB242D0
:1004700001D1082605E02E4EB24201D1092600E046
:100480000A268F073F0FBE4030431F4E8F0846F8A5
:100490002700284E3068A0435E6806F48036B6F523
:1004A000803F00D12043234E3060361D3068A0438A
:1004B0005E6806F40036B6F5003F00D120431D4EBD
:1004C000361D3060361D3068A0435E6806F4801625
:1004D000B6F5801F00D12043164E08363060361D19
:1004E0003068A0435E6806F40016B6F5001F00D120
:1004F0002043104E0C363060491C1029FFF416AF13
:10050000F8BD0000443802400838014000000240B5
:100510000004024000080240000C024000100240AB
:100520000014024000180240001C0240002002405B
:1005300000240240003C0140024613690B400BB10D
:10054000012000E0002070470AB1816101E00B0446
:100550008361704701480068704700001400002064
:100560000348006803490978084401490860704756
:10057000140000201C00002010B50D48006840F455
:1005800000700B4908600846006840F4806008600D
:100590000846006840F480700860032000F0C4F84A
:1005A000002000F007F800F02BF8002010BD00003C
:1005B000003C024070B504460E4800784FF47A7152
:1005C000B1FBF0F00C490968B1FBF0F5284600F0EA
:1005D000FBFB08B1012070BD102C07D20022214680
:1005E000501E00F063F80548046001E00120F2E7C6
:1005F0000020F0E71C000020200000201800002050
:1006000008B500BF002000900E48006840F480400C
:100610000C4908600846006800F48040009000BF64
:1006200000BF00BF00200090081F006840F080500D
:10063000091F08600846006800F08050009000BF65
:1006400000BF08BD4438024010B5014608460028E6
:1006500017DB00F01F0301229A400B4B440943F8BB
:10066000242000BF00BF00BFBFF34F8F00BF00BFFB
:1006700000BF00BF00BF00BFBFF36F8F00BF00BF50
:1006800000BF00BF10BD000080E100E00146084649
:10069000002809DB00F01F0301229A4043099B0058
:1006A00003F1E023C3F8002100BF70472DE9F05F9C
:1006B00080460D461646002701F07AF9074639466E
:1006C0002A46334601F00700C0F1070ABAF1040FC9
:1006D00002D94FF0040A01E0C0F1070AD14600F147
:1006E000040ABAF1070F02D24FF0000A01E0A0F1AC
:1006F000030AD4464FF0010A0AFA09FAAAF1010ADC
:100700000AEA020A0AFA0CFA4FF0010B0BFA0CFB88
:10071000ABF1010B0BEA030B4AEA0B0421464046FE
:1007200001F04EF9BDE8F09F00BF00F00702064B54
:1007300019684FF6FF031940044B0B4343EA0221AB
:10074000014B196000BF70470CED00E00000FA0596
:1007500070B504460D460CB9012070BD58480068BC
:1007600000F00F00A84209D255490D7008460068F4
:1007700000F00F00A84201D00120EEE7207800F041
:10078000020002281DD1207800F00400042805D1C1
:100790004C48006840F4E0504A490860207800F076
:1007A0000800082805D14748006840F460404549E2
:1007B00008604448006820F0F000A16808434149FF
:1007C0000860207800F00100A8B36068012807D114
:1007D0003C4808380068C0F34040B8B90120BCE785
:1007E0006068022802D06068032807D135480838BD
:1007F0000068C0F3406048B90120AEE731480838CE
:100800000068C0F3400008B90120A6E72D48006841
:1008100020F00300616808432A490860FFF79AFE48
:10082000064609E0FFF796FE801B41F288318842B8
:1008300002D9032091E707E02248006800F00C008D
:100840006168B0EB810FEDD11D48006800F00F002A
:10085000A84209D91A490D700846006800F00F0037
:10086000A84201D0012078E7207800F00400042895
:1008700007D11448006820F4E050E16808431149AA
:100880000860207800F00800082808D10D480068AA
:1008900020F46040216940EAC1000A49086000F084
:1008A00017F808490968C1F30311074A515CC840A9
:1008B000064908600020FFF77DFE00204DE700009C
:1008C000003C024008380240381A0008200000208E
:1008D0002DE9F047002400250026A14625480068A0
:1008E00000F00C0020B1042805D008283AD105E01A
:1008F000DFF8849039E0DFF8849036E01D48001F6F
:10090000006800F03F041B48001F006800F48000EE
:1009100078B11A481749091F0968C1F38811A0FB6B
:1009200001700146224600233846FFF75BFC05466E
:100930000EE011480F49091F0968C1F38811A0FB97
:1009400001700146224600233846FFF74BFC05465E
:100950000848001F0068C0F30140401C4600B5FB7A
:10096000F6F902E0DFF8109000BF00BF4846BDE88E
:10097000F0870000083802400024F40000127A00DA
:10098000F8B504460CB90120F8BD207800F001004C
:10099000002874D0F948006800F00C0004280DD03D
:1009A000F648006800F00C00082813D1F348001F37
:1009B000006800F48000B0F5800F0BD1EF480838D4
:1009C0000068C0F34040002859D06068002856D124
:1009D0000120D9E700BF6068B0F5803F08D1E74843
:1009E0000838006840F48030E449083908601EE0A7
:1009F0006068B0F5A02F0DD1E0480838006840F4D9
:100A00008020DE49083908600846006840F48030DC
:100A100008600CE0D9480838006820F48030D749D5
:100A2000083908600846006820F48020086000BF8C
:100A3000606890B1FFF78EFD054606E0FFF78AFD7E
:100A4000401B642801D903209EE7CC480838006881
:100A5000C0F340400028F1D011E0FFF77BFD0546D0
:100A600006E0FFF777FD401B642801D903208BE7E0
:100A7000C24808380068C0F340400028F1D120780F
:100A800000F0020002285FD1BC48006800F00C00B2
:100A900058B1BA48006800F00C0008281CD1B748CB
:100AA000001F006800F48000B0B9B448083800683E
:100AB000C0F3400020B1E068012801D0012063E7C5
:100AC000AE480838006820F0F800216940EAC1000B
:100AD000AA490839086037E0E06800B30120A84956
:100AE0000860FFF737FD054606E0FFF733FD401BC2
:100AF000022801D9032047E7A04808380068C0F35E
:100B000040000028F1D09D480838006820F0F80027
:100B1000216940EAC10099490839086014E00020C1
:100B200097490860FFF716FD054606E0FFF712FD3E
:100B3000401B022801D9032026E7904808380068A6
:100B4000C0F340000028F1D1207800F00800082808
:100B50002CD16069A8B101208A490860FFF7FAFC2E
:100B6000054606E0FFF7F6FC401B022801D90320EA
:100B70000AE782486C300068C0F340000028F1D0DA
:100B800014E000207F490860FFF7E4FC054606E01A
:100B9000FFF7E0FC401B022801D90320F4E6774868
:100BA0006C300068C0F340000028F1D1207800F0DC
:100BB0000400042870D1002670483830006800F026
:100BC000805090B900BF002000906C483830006819
:100BD00040F080506949383108600846006800F0EC
:100BE0008050009000BF00BF01266748006800F4F5
:100BF0008070B0B96448006840F480706249086051
:100C0000FFF7A8FC054606E0FFF7A4FC401B0228FE
:100C100001D90320B8E65C48006800F48070002821
:100C2000F2D000BFA068012808D15448683000689D
:100C300040F001005149683108601DE0A0680528B6
:100C40000DD14E486830006840F004004B496831CF
:100C500008600846006840F0010008600CE0474862
:100C60006830006820F00100444968310860084697
:100C7000006820F00400086000BFA068A8B1FFF77A
:100C800069FC054609E0FFF765FC401B41F288312D
:100C9000884202D9032077E626E0384868300068A9
:100CA000C0F340000028EED013E0FFF753FC0546E8
:100CB00008E0FFF74FFC401B41F28831884201D920
:100CC000032061E62D4868300068C0F3400000282A
:100CD000EFD1012E07D129483830006820F080502C
:100CE00026493831086000BFA069B8B323480068BE
:100CF00000F00C0008285ED0A069022846D1002030
:100D00001F490866FFF726FC054606E0FFF722FCB0
:100D1000401B022801D9032036E61848083800682D
:100D2000C0F340600028F1D1D4E907010843616AAB
:100D300040EA81110122A06AC2EB500041EA004161
:100D40002C20005D41EA00600C49091F0860012069
:100D50000B490866FFF7FEFB054607E02DE0FFF7AD
:100D6000F9FB401B022801D903200DE6034808388F
:100D70000068C0F340600028F1D01EE0083802404F
:100D800000004742800E47420070004000200C499E
:100D90000866FFF7DFFB054606E0FFF7DBFB401BBD
:100DA000022801D90320EFE506480068C0F340603F
:100DB0000028F2D101E00120E6E50020E4E5000092
:100DC000000047420038024070B504462546681EC0
:100DD000B0F1807F01D301200FE0681E4FF0E021C9
:100DE00048610F214FF0FF3000F0EAFD00204FF086
:100DF000E021886107200861002070BD70477047BE
:100E000010B5024600BF92F83C00012801D1022033
:100E100010BD012082F83C0000BF022082F83D0096
:100E2000106843681068846823F0700308680343FF
:100E300024F08004486804431068436010688460AC
:100E4000012082F83D0000BF002082F83C0000BF76
:100E500000BFDDE710B504460CB9012010BD94F8C1
:100E60003D0028B9002084F83C00204600F00CF832
:100E7000022084F83D00211D206800F0EFFC0120D5
:100E800084F83D000020E9E708B5144A0168914262
:100E90000FD100BF002100911149096841F0020102
:100EA0000F4A11601146096801F00201009100BF6C
:100EB00013E00C4A016891420FD100BF002100915C
:100EC0000749096841F00401054A116011460968A3
:100ED00001F00401009100BF00BF08BD0004004004
:100EE000403802400008004001460868C06840F0F1
:100EF00001000B68D8600868806800F00702062AC5
:100F000005D00868006840F001000B6818600020F8
:100F1000704701460868C06820F001000A68D06088
:100F200000BF0868006A41F21112104050B9086809
:100F3000006A9210104028B90868006820F001008B
:100F40000A68106000BF002070472DE9F041044698
:100F50000D4600BF94F83C00012802D10220BDE8F4
:100F6000F081012084F83C0000BF022084F83D009D
:100F70002068866826F0770626F47F46206886601B
:100F80002868502833D00CDC202850D004DC0028FE
:100F90004BD0102851D149E0302849D040284CD1BD
:100FA00039E060282DD0702807D0B0F5805F03D0DD
:100FB000B0F5005F41D10DE040E0D5E902136A6869
:100FC000206800F0B7FC2068866846F07706206845
:100FD000866033E0D5E902136A68206800F0AAFC55
:100FE0002068806840F480402168886026E0EA68D4
:100FF0006968206800F0B2FC5021206800F0A5FC70
:101000001CE0EA686968206800F0BBFC6021206889
:1010100000F09BFC12E0EA686968206800F09EFC22
:101020004021206800F091FC08E000BF00BF00BF35
:101030002968206800F089FC00E000BF00BF0120A3
:1010400084F83D0000BF002084F83C0000BF00BFD2
:1010500085E7704710B5044620680069C0F340007A
:10106000D8B12068C068C0F34000B0B16FF0020092
:1010700021680861012020772068806900F0030062
:1010800018B12046FFF7E5FF05E0204600F0ADF877
:10109000204600F0ABF80020207720680069C0F3FC
:1010A0008000D8B12068C068C0F38000B0B16FF094
:1010B000040021680861022020772068806900F41C
:1010C000407018B12046FFF7C4FF05E0204600F04D
:1010D0008CF8204600F08AF800202077206800690C
:1010E000C0F3C000D8B12068C068C0F3C000B0B180
:1010F0006FF0080021680861042020772068C0692B
:1011000000F0030018B12046FFF7A3FF05E02046DA
:1011100000F06BF8204600F069F800202077206886
:101120000069C0F30010D8B12068C068C0F3001097
:10113000B0B16FF0100021680861082020772068A6
:10114000C06900F4407018B12046FFF782FF05E047
:10115000204600F04AF8204600F048F800202077AA
:101160002068006900F0010058B12068C06800F0F4
:10117000010030B16FF0010021680861204600F0E5
:1011800037F820680069C0F3C01058B12068C06803
:10119000C0F3C01030B16FF08000216808612046B4
:1011A000FFF72CFE20680069C0F3801058B120685A
:1011B000C068C0F3801030B16FF040002168086152
:1011C000204600F0A7F820680069C0F3401058B12D
:1011D0002068C068C0F3401030B16FF02000216873
:1011E00008612046FFF70BFE10BD704770470000F6
:1011F00070B504463C49206888424FD13B48FFF710
:1012000088FE00253A4800783A4908700846007878
:1012100018B108460078012802D13748058833E024
:1012200034480078022806D1334880883249C9887A
:10123000084485B228E02F48007803280BD02D48B9
:101240000078042807D02B480078052803D02948C7
:101250000078062808D12848458840882749098809
:101260000844264908800FE022480078072809D161
:101270002148C08820494989084485B200201F4977
:10128000088001E01C48058800BF18480068C56256
:101290001648C56000BFFFF727FE24E01849206804
:1012A000884220D102214FEA7030FFF745F901282A
:1012B00008D11448007808B9012000E00020114945
:1012C00008700DE004211048FFF736F9012802D11B
:1012D0000E49087004E000200A4908700B490870A4
:1012E0000B48FFF716FE70BD0004004024000020EC
:1012F0000F0000200E000020000000200C00002045
:1013000000080040100000200000024011000020F2
:1013100064000020704700BFFEE7704700B587B04B
:10132000142102A8FEF796FF00BF002001901D487F
:10133000006840F080001B4908600846006800F023
:101340008000019000BF00BF00BF00200190084650
:10135000006840F0010008600846006800F00100E5
:10136000019000BF00BF002240F6F8710E48FFF761
:10137000EBF8062002900D4803900020049002A98B
:101380000948FEF7CBFF40F6F87002900120039069
:1013900000200490059002A90348FEF7BFFF07B0A4
:1013A00000BD000030380240000002400000111073
:1013B00010B5002202211D20FFF778F91D20FFF74C
:1013C00065F9002211460720FFF770F90720FFF7A3
:1013D0005DF9002201211E20FFF768F91E20FFF7AA
:1013E00055F9002211460820FFF760F90820FFF7A1
:1013F0004DF910BD00B587B0002003900490059012
:101400000690019002901548154908604BF67F3010
:1014100048600021124881604FF47A71C160002158
:1014200001618161FFF716FD08B1FEF75CFF4FF423
:101430008050039003A90A48FFF787FD08B1FEF723
:1014400052FF202001900020029001A90448FFF7DC
:10145000D7FC08B1FEF747FF07B000BD000400400D
:101460002400002000B587B0002003900490059070
:101470000690019002901548154908604BF67F30A0
:1014800048600021124881606521C160002101612E
:101490008161FFF7DFFC08B1FEF725FF4FF48050B4
:1014A000039003A90A48FFF750FD08B1FEF71BFFA0
:1014B000202001900020029001A90548FFF7A0FC20
:1014C00008B1FEF710FF07B000BD000000080040A3
:1014D0006400002000BFFEE77047704770470000BF
:1014E00010B587480078082845D2DFE800F0040FDF
:1014F000212534383C408348007818B900208249BF
:10150000087002E001208049087038E07D480078CA
:1015100018B900207C49087009E07C48007818B9A7
:1015200001207949087002E002207749087026E01E
:1015300003207549087022E075484088754909887C
:10154000B1EB800F03DB07206F49087002E0042035
:101550006D49087013E005206B4908700FE0062004
:10156000694908700BE003206749087007E0012013
:101570006549087003E000206349087000BF00BFA0
:101580005F480078082870D2DFE800F004112636A2
:10159000495C708300205D490870002240F6F871B4
:1015A0005D48FEF7D1FF0820FFF74EF8A5E0574849
:1015B000007840B90820FFF769F801220821564851
:1015C000FEF7C2FF07E00820FFF73EF800220821DF
:1015D0005148FEF7B9FF90E050480068406A4C4916
:1015E000C988884207D90020484908700122302163
:1015F0004948FEF7A9FF80E001224FF40461464804
:10160000FEF7A2FF00224FF490614348FEF79CFFD3
:1016100000224FF440714048FEF796FF6DE0002233
:101620004FF404613C48FEF78FFF01224FF49061B4
:101630003948FEF789FF00224FF440713648FEF723
:1016400083FF5AE000224FF404613348FEF77CFF29
:1016500000224FF490613048FEF776FF01224FF4EC
:1016600040712D48FEF770FF47E039E000224FF44B
:1016700004612948FEF768FF01224FF49061264873
:10168000FEF762FF00224FF440712348FEF75CFF33
:1016900033E000224FF404611F48FEF755FF1F4856
:1016A0000068406A1A49C988884218D90022302146
:1016B0001948FEF749FF1548007840B90820FEF7A1
:1016C000E5FF012208211448FEF73EFF07E008204D
:1016D000FEF7BAFF002208210F48FEF735FF0CE0A5
:1016E00000200A490870002240F6F8710A48FEF707
:1016F0002BFF0820FEF7A8FF00BF00BF10BD0000B1
:101700000E000020100000200F000020110000201B
:10171000000000200C0000200000024024000020F7
:1017200010B5FEF71DFF10BD00B593B0302107A81E
:10173000FEF790FD142102A8FEF78CFD00BF0020EB
:1017400001902348006840F0805021490860084615
:10175000006800F08050019000BF00BF00BF002073
:1017600001901C48006820F4404040F48040194932
:1017700008600846006800F44040019000BF00BFC8
:10178000012007900004089002200D9041050E9161
:1017900004210F91C021109104211191129107A8E9
:1017A000FFF7EEF808B1FEF79EFD0F200290022031
:1017B000039080200490400105900690012102A82A
:1017C000FEF7C6FF08B1FEF78EFD13B000BD0000A6
:1017D00040380240007000401448006840F4700037
:1017E000124908601248006840F001001049086082
:1017F00000200F49083108600D4800680D49084075
:101800000B4908600C48091D0860081F006820F497
:101810008020091F0860002005490C3108604FF046
:1018200000600249803908607047000088ED00E0E0
:1018300000380240FFFFF6FE1030002410B50248C9
:10184000FFF708FC10BD00002400002010B502487E
:10185000FFF700FC10BD00006400002010B5026816
:10186000294B98420ED0B0F1804F0BD0274B9842B5
:1018700008D0274B984205D0264B984202D0264BE1
:10188000984203D122F070024B681A431E4B9842D3
:1018900020D0B0F1804F1DD01C4B98421AD01C4B69
:1018A000984217D01B4B984214D01B4B984211D032
:1018B0001A4B98420ED01A4B98420BD0194B9842B3
:1018C00008D0194B984205D0184B984202D0184BBB
:1018D000984203D122F44072CB681A4322F080036D
:1018E0004C6943EA040202608B68C3620B6883623E
:1018F000054B984202D0084B984201D10B69036313
:101900000123436110BD00000000014000040040BD
:1019100000080040000C004000040140004001406D
:10192000004401400048014000180040001C0040F5
:101930000020004030B50C46816821F47F4142EA26
:10194000032525432943816030BD0A46816821F083
:10195000700142F0070319438160704730B50B46B0
:101960001446026A056A25F001050562816921F0C5
:10197000F00141EA041122F00A021A438161026275
:1019800030BD30B50B461446056A25F010050562DA
:101990008169026A21F4704141EA043122F0A00217
:1019A00042EA03128161026230BD00BFFEE700001F
:1019B00002480068C0F30220704700000CED00E010
:1019C00010B5002804DB0A07130E054A135406E07D
:1019D0000A07140E034A00F00F031B1FD45410BD56
:1019E00000E400E018ED00E002E008C8121F08C1A2
:1019F000002AFAD170477047002001E001C1121F90
:101A0000002AFBD170470000FEF7B6FDFFF78CFE01
:101A1000FFF784FCFFF7EEFCFFF724FDFFF77DFCEA
:101A2000FFF7C6FC0348FFF75FFA01E0FFF758FD38
:101A3000FCE700002400002000000000000000007F
:101A40000102030406070809000000000102030464
:101A5000701A00080000002024000000E8190008A7
:101A6000941A00082400002084040000F8190008DB
:101A7000E803B80B88138813650030750000000078
:101A80000000000000000000100000000100000045
:041A90000024F4003A
:04000005080001AD41
:00000001FF
